{
  "contractName": "ERC20Wallet",
  "abi": [
    {
      "constant": true,
      "inputs": [
        {
          "internalType": "address",
          "name": "_owner",
          "type": "address"
        }
      ],
      "name": "readEthBalance",
      "outputs": [
        {
          "internalType": "uint256",
          "name": "balance",
          "type": "uint256"
        }
      ],
      "payable": false,
      "stateMutability": "view",
      "type": "function"
    },
    {
      "constant": true,
      "inputs": [
        {
          "internalType": "address",
          "name": "_tokenAddress",
          "type": "address"
        }
      ],
      "name": "readBalance",
      "outputs": [
        {
          "internalType": "uint256",
          "name": "balance",
          "type": "uint256"
        }
      ],
      "payable": false,
      "stateMutability": "view",
      "type": "function"
    },
    {
      "constant": false,
      "inputs": [
        {
          "internalType": "address",
          "name": "_tokenAddress",
          "type": "address"
        },
        {
          "internalType": "uint256",
          "name": "_value",
          "type": "uint256"
        }
      ],
      "name": "approve",
      "outputs": [
        {
          "internalType": "bool",
          "name": "success",
          "type": "bool"
        }
      ],
      "payable": false,
      "stateMutability": "nonpayable",
      "type": "function"
    }
  ],
  "bytecode": "0x608060405234801561001057600080fd5b50610349806100206000396000f3fe608060405234801561001057600080fd5b50600436106100415760003560e01c8063095ea7b31461004657806378d20574146100ac57806380b3e07714610104575b600080fd5b6100926004803603604081101561005c57600080fd5b81019080803573ffffffffffffffffffffffffffffffffffffffff1690602001909291908035906020019092919050505061015c565b604051808215151515815260200191505060405180910390f35b6100ee600480360360208110156100c257600080fd5b81019080803573ffffffffffffffffffffffffffffffffffffffff16906020019092919050505061022d565b6040518082815260200191505060405180910390f35b6101466004803603602081101561011a57600080fd5b81019080803573ffffffffffffffffffffffffffffffffffffffff1690602001909291905050506102f3565b6040518082815260200191505060405180910390f35b6000808390508073ffffffffffffffffffffffffffffffffffffffff1663095ea7b330856040518363ffffffff1660e01b8152600401808373ffffffffffffffffffffffffffffffffffffffff1673ffffffffffffffffffffffffffffffffffffffff16815260200182815260200192505050602060405180830381600087803b1580156101e957600080fd5b505af11580156101fd573d6000803e3d6000fd5b505050506040513d602081101561021357600080fd5b810190808051906020019092919050505091505092915050565b6000808290508073ffffffffffffffffffffffffffffffffffffffff166370a08231336040518263ffffffff1660e01b8152600401808273ffffffffffffffffffffffffffffffffffffffff1673ffffffffffffffffffffffffffffffffffffffff16815260200191505060206040518083038186803b1580156102b057600080fd5b505afa1580156102c4573d6000803e3d6000fd5b505050506040513d60208110156102da57600080fd5b8101908080519060200190929190505050915050919050565b60008173ffffffffffffffffffffffffffffffffffffffff1631905091905056fea265627a7a72315820efd4f49640ed1a7647efd374066024fef31b0107edb298b3fded41c0dce7152a64736f6c63430005100032",
  "source": "pragma solidity ^0.5.0;\n\nimport \"./ERC20Interface.sol\";\n\ncontract ERC20Wallet {\n    /*\n        Reads ETH balance of the _owner\n    */\n    function readEthBalance(address _owner) public view returns (uint256 balance) {\n        return address(_owner).balance;\n    }\n\n    /*\n        Reads balance of the _owner\n    */\n    function readBalance(address _tokenAddress) public view returns (uint256 balance) {\n        ERC20Interface token = ERC20Interface(_tokenAddress);\n        return token.balanceOf(msg.sender);\n    }\n\n    /*\n        Allows this smart contract to spend on behalf of msg.sender\n    */\n    function approve(address _tokenAddress, uint256 _value) public returns (bool success) {\n        ERC20Interface token = ERC20Interface(_tokenAddress);\n        return token.approve(address(this), _value);\n    }\n}\n",
  "sourcePath": "/Users/hughnguyen/hugh/solidity-projects/contracts/erc-20/ERC20Wallet.sol",
  "compiler": {
    "name": "solc",
    "version": "0.5.16+commit.9c3226ce.Emscripten.clang"
  },
  "schemaVersion": "3.4.1",
  "updatedAt": "2021-07-22T03:24:59.520Z",
  "networkType": "ethereum",
  "devdoc": {
    "methods": {}
  },
  "userdoc": {
    "methods": {}
  }
}